:020000040800F2
:1000000000400020B9020008C1020008C502000833
:10001000DD020008E1020008F9020008000000000B
:10002000000000000000000000000000D50F0008E4
:10003000150300080000000075100008B11000084A
:100040002D0300082D0300082D0300082D030008D0
:100050002D0300082D030008B91900082D0300081E
:100060002D0300082D0300082D0300082D030008B0
:100070002D0300082D0300082D0300082D030008A0
:100080002D0300082D0300082D0300082D03000890
:100090002D0300082D0300082D0300082D03000880
:1000A0002D0300082D0300082D0300082D03000870
:1000B0002D0300082D0300082D0300082D03000860
:1000C0002D0300082D0300082D0300082D03000850
:1000D0002D030008851C00082D0300082D030008CF
:1000E0002D0300082D0300082D0300082D03000830
:1000F0002D0300082D0300082D0300082D03000820
:100100000000000000000000000000002D030008B7
:100110002D0300082D0300082D0300082D030008FF
:100120002D0300082D0300082D0300082D030008EF
:100130002D0300082D03000800000000000000004F
:100140002D0300082D0300082D0300080000000007
:10015000000000000000000000000000000000009F
:1001600000000000000000002D0300082D0300081F
:100170002D03000800000000000000000000000047
:10018000000000002D03000800B583B000F05EFD04
:10019000384B394A1360394A136039490CE00A6810
:1001A0004B6801F10C04886803E01168196004339E
:1001B00004329842F9D82146324B9942EFD32E4B64
:1001C0001A68314B9A4204D12C4B1A682F4B9A4231
:1001D00000D0FEE7274B2E4A13602E4A13602E4BA9
:1001E0000AE0194651F8082B5B6802E00020106015
:1001F00004329A42FAD30B46284A9342F1D3244B55
:100200001B6813B9234B1B6803B1FEE700F02AFDFE
:1002100001A8694600F012FD214C224B1C1BA410C2
:10022000002504E01E4B53F8253098470135AC42B9
:10023000F8DC1D4C1D4B1C1BA410002504E01A4BC0
:1002400053F8253098470135AC42F8DC0198009905
:1002500001F0DCFB0546164C164B1C1BA41004E0F9
:10026000013C134B53F824309847002CF8DC284607
:1002700000F0E2FCBABADECA000000205000002004
:100280003003000848030008785634123254769838
:1002900058000020242300204803000858030008C9
:1002A00058030008580300085803000858030008C2
:1002B000580300085803000808B5FFF765FF00BFA2
:1002C00000BEFEE71EF0040F0CBFEFF30880EFF353
:1002D00009807146124A104700BEFEE700BEFEE7E5
:1002E0001EF0040F0CBFEFF30880EFF30980714696
:1002F0000C4A104700BEFEE71EF0040F0CBFEFF3E0
:100300000880EFF309807146074A104700BEFEE7F8
:1003100000BEFEE700BEFEE700BEFEE7704700003D
:10032000D9020008F50200080D03000800BEFEE730
:10033000741E00080000002054000020741E0008F5
:1003400000000010000000105800002028230020AA
:08035000000000100000001085
:100358008379002B6DD030B4026822F01F0303F1BB
:10036800804303F582331C6802F01F01012202FA60
:1003780001F124EA01011960036823F01F05374CD5
:10038800295903F01F0302FA03F321EA03032B514F
:100398000479016821F01F03234403F1804303F526
:1003A80082331C6801F01F0102FA01F12143196030
:1003B800036823F01F052A4C295903F01F0302FA8A
:1003C80003F321EA03032B51036823F01F050434C8
:1003D800295903F01F039A4021EA02022A5142795F
:1003E800102A16D1036823F01F041D49655803F02D
:1003F8001F02012303FA02F22A436250026822F024
:100408001F000431445802F01F0293402343435015
:1004180022E0016821F01F03134403F1804303F530
:100428008233186801F01F0101228A4002431A60D2
:1004380012E00179026822F01F030B4403F18043A4
:1004480003F58233196802F01F02012000FA02F254
:1004580021EA02021A60704730BC70470404014068
:1004680008040140420902F1007303F502635B01CD
:10047800196800F01F000123834019405201054804
:100488001258134202D019B9002070470020704753
:10049800012070471404014020F01F0100F01F00E4
:1004A80001238340014A8B50704700BF1404014068
:1004B80070B400223EE0012393400C681C409C422B
:1004C80037D10B79013BDBB2012B19D88468550071
:1004D8000323AB4024EA0303836084684B79AB4071
:1004E8002343836083889CB295B20123AB4024EAFE
:1004F8000303838084888B79AB4023439BB283803A
:1005080003685500032404FA05F623EA060303608A
:1005180006680B79AB4033430360C36896B2760034
:10052800B44023EA0404C460C468CB79AB402343D5
:10053800C36001320F2ABED970BC70478161704711
:100548000185704730B401F007039B009A40C90841
:10055800083150F821400F2505FA03F324EA030374
:1005680040F8213050F821301A4340F8212030BC9F
:10057800704700BF08B50C4B98420AD14FF40010E1
:10058800012100F071FA4FF40010002100F06CFA1C
:1005980008BD4FF48000012100F066FA4FF4800096
:1005A800002100F061FA08BD0054004010B403684F
:1005B80023F0010303600268144B13404A688C68F7
:1005C80042EA0422134303600B6823F0706303615B
:1005D800036843F00103036000238360C3608A69F2
:1005E8000B6913438360836843F400438360CB68DB
:1005F800026813430360436823F0784323F40043FD
:100608004A69134343605DF8044B7047FFE0CF002D
:1006180021B1036843F0010303607047036823F0C6
:1006280001030360704700BF10B4446824F07F746E
:1006380024F4593424F47F7424F00304C1F3090129
:1006480041EA02421343019A43EA02010C4344601F
:100658005DF8044B704700BF81627047406AC0B2C2
:10066800704700BF83690B4201D00120704700200A
:10067800704700BFC3780BB310B4184BDA68D24385
:10068800C2F30222C2F104040F2323FA02F14378D1
:1006980003FA04F283780B4013431B010278DBB2A0
:1006A8000F490A4482F800330378580903F01F03FE
:1006B800012202FA03F341F820300BE003785A09CB
:1006C80003F01F030121994002F12003044A42F874
:1006D800231070475DF8044B704700BF00ED00E041
:1006E80000E100E021B1054B5A681043586070479B
:1006F800024A536823EA00005060704700700040C7
:10070800074B1A6842F004021A601A6842F00202A3
:100718001A60044A136943F00403136130BF704739
:100728000070004000ED00E0F0B5A44B5B6803F0FA
:100738000C03042B06D0082B08D003BBA04B036086
:1007480000241FE09E4B036000241BE09B4B5C6869
:100758005A68C4F38344A31C12F4803F03D1994C14
:1007680004FB03F409E0954AD26A02F00F02013251
:10077800934CB4FBF2F403FB04F4046002E0904BE6
:10078800036000248D494B68C3F30313DFF838E294
:100798001EF80350EDB2026822FA05F343604E6872
:1007A800C6F302261EF80660F6B223FA06F787603B
:1007B8004E68C6F3C2261EF80660F6B2F340C36060
:1007C800C96AC1F30411DFF804E23EF8111089B2D6
:1007D80001F0100E1FFA8EFEBEF1000F03D0B4FB1D
:1007E800F1F1016100E002617449C96AC1F3442171
:1007F800DFF8D8E13EF8111089B201F0100E1FFAA7
:100808008EFEBEF1000F03D0B4FBF1F1416100E0B0
:1008180042616A49096B11F0100F02D16849816180
:1008280000E082616549096B11F0200F02D164492B
:10083800C16100E0C2616149096B11F4807F06D093
:10084800944204D1AE4202D16100016200E0036229
:100858005A49096B11F4007F06D0944204D1AE4284
:1008680002D16400446200E043625449096B11F00C
:10087800030F01D1836219E0504B1B6B03F0030394
:10088800012B01D1826211E04C4B1B6B03F0030377
:10089800022B03D14FF40043836207E0474B1B6BE5
:1008A80003F00303032B01D1454B8362434B1B6BBE
:1008B80013F4403F01D1C7621CE0404B1B6B03F4AB
:1008C8004033B3F5803F01D1C26213E03B4B1B6B51
:1008D80003F44033B3F5003F03D14FF40043C36240
:1008E80008E0364B1B6B03F44033B3F5403F01D1AE
:1008F800334BC362314B1B6B13F4402F01D1076399
:100908001CE02E4B1B6B03F44023B3F5802F01D161
:10091800026313E0294B1B6B03F44023B3F5002F4C
:1009280003D14FF40043036308E0244B1B6B03F42B
:100938004023B3F5402F01D1214B03631F4B1B6BA1
:1009480013F4401F01D147631CE01C4B1B6B03F4DD
:100958004013B3F5801F01D1426313E0174B1B6BA3
:1009680003F44013B3F5001F03D14FF4004343636E
:1009780008E0124B1B6B03F44013B3F5401F01D181
:100988000F4B43630D4B1B6B13F4400F01D187636F
:10099800F0BD0A4B1B6B03F44003B3F5800F01D184
:1009A8008263F0BD054B1B6B03F44003B3F5000FE6
:1009B8000ED14FF400438363F0BD00BF0010024026
:1009C80000127A0000093D002000002004000020E9
:1009D800044B1B6B03F44003B3F5400F01D1024BEA
:1009E8008363F0BD0010024000127A00030F05D0A7
:1009F800074A136B23F02003136304E0044A136BC4
:100A080023F010031363024B1A6B104318637047EB
:100A18000010024021B1054B5A69104358617047D4
:100A2800024A536923EA00005061704700100240EF
:100A380021B1054B9A69104398617047024A93693E
:100A480023EA0000906170470010024021B1054B75
:100A5800DA691043D8617047024AD36923EA000073
:100A6800D06170470010024021B1054B1A6910434C
:100A780018617047024A136923EA00001061704741
:100A88000010024030B401F0030292000F24944099
:100A98008908084B023153F8215025EA040443F829
:100AA800214053F821409040204343F8210030BCB6
:100AB800704700BF0000014030B591B004460D46B4
:100AC800036823F001030360436823F440538A68F2
:100AD80013434360036823F4B05323F00C034968BD
:100AE800EA6811432A690A4313430360836823F4BD
:100AF80040736A691343836001A8FFF715FE1C4B16
:100B08009C4201D10B9A0FE01A4B9C4201D10C9ADE
:100B18000AE0194B9C4201D10D9A05E0174B9C4203
:100B280001D10E9A00E00F9A236813F4004F06D003
:100B380052002968B2FBF1F301FB132204E0296893
:100B4800B2FBF1F301FB13222968B2EB510F00D37A
:100B58000133226812F4004F06D0C3F3420223F097
:100B68000F031B041B0C13439BB2A38111B030BDB0
:100B7800003801400044004000480040004C00405C
:100B880021B1036843F0010303607047036823F051
:100B980001030360704700BFC1F308010185704776
:100BA800808CC0F30800704730B4C1F30725C9B280
:100BB80001238B40022D01D1041D04E00446032DBE
:100BC80001D100F108041AB122681343236003E03D
:100BD800226822EA0303236030BC7047C3690B42D2
:100BE80001D0012070470020704700BF10B4C1F346
:100BF8000722CCB20123A340012A02D10268134084
:100C080006E0022A02D14268134001E082681340DC
:100C1800090C01228A40C1690A4013B11AB900209F
:100C280002E0002000E001205DF8044B704700BF9F
:100C3800FEE700BF01230360014B0B60704700BF54
:100C48003000002008B500F065F8024B024A9A60AF
:100C580008BD00BF00ED00E00000000808B500F086
:100C68008BF808BD82B0002301930093274A1368CC
:100C780043F480331360254B1B6803F4003300935F
:100C8800019B01330193009B1BB9019BB3F5A06F36
:100C9800F1D11E4B1B6813F4003F02D001230093CF
:100CA80001E000230093009B012B2CD11222184B4A
:100CB8001A60A3F580535A685A605A685A605A688D
:100CC80042F480625A605A6822F47C125A605A6868
:100CD80042F4E8125A601A6842F080721A600B4BAC
:100CE8001B6813F0007FFAD0084B5A6822F0030201
:100CF8005A605A6842F002025A60044B5B6803F07B
:100D08000C03082BF9D102B0704700BF0010024055
:100D18000020024008B5144B1A6842F001021A601C
:100D28005968124A0A405A601A6822F0847222F4FA
:100D380080321A601A6822F480221A605A6822F4F3
:100D4800FE025A60DA6A22F00F02DA62196B084A68
:100D58000A401A6300229A60FFF784FF4FF000628E
:100D6800044B9A6008BD00BF001002400CC07FF819
:100D7800CCFC00FF00ED00E01D4B5B6803F00C03AA
:100D8800042B06D0082B08D01BBB1A4A1A4B1A6032
:100D980022E0184A184B1A601EE0154A5368526838
:100DA800C3F38343023312F4803F05D1134A02FB95
:100DB80003F3114A13600FE00D4AD26A02F00F02E2
:100DC80001320C49B1FBF2F203FB02F30A4A136049
:100DD80002E0084A084B1A60054B5B68C3F303132B
:100DE800074AD25CD2B204490B68D3400B60704703
:100DF8000010024000127A004800002000093D005F
:100E08003800002070B5044600F078FA274B1B68BC
:100E180083B9274B274A1A600020586026494FF4A7
:100E280000534B60086053601160244A136001222C
:100E38001E4B1A6034B1103414F0070F02D024F09E
:100E480007040834621E41F6FE739A4227D81849EF
:100E58000B6801E0194613465A68A24202D21A6882
:100E6800002AF7D1144A93421BD00D6810351A682E
:100E78000A605A68121B202A0CD91E1972605C601D
:100E880070680B4A00E01A46136859688142FAD321
:100E980033601660094A13681C1B146002E00025C1
:100EA80000E0002500F088FA284670BD60000020A8
:100EB8006C2000206800002074200020682000209A
:100EC800D0B170B50546A0F1100600F017FA55F834
:100ED8000C4C0A4A00E01A4613685968A142FAD332
:100EE80045F8103C166055F80C1C054A13680B446D
:100EF800136000F061FA70BD704700BF6C200020DD
:100F08006820002000F1080343604FF0FF32826040
:100F1800C360036100230360704700BF00230361BF
:100F2800704700BF43685A684A6042688A605A68D6
:100F3800916059604160086103680133036070473C
:100F480010B40C68B4F1FF3F01D1036907E000F168
:100F5800080300E05B685A681268A242FAD95A6826
:100F68004A6091608B6059600861036801330360CF
:100F78005DF8044B704700BF436882689A608368D5
:100F880042685A6003695A68824201D182685A608D
:100F9800002202611A68013A1A60704741F63F72EE
:100FA800024B1A600722043B1A60704714E000E005
:100FB8004FF0807340F8043C40F8081C002340F8C8
:100FC8000C3C40F8202C4038704700BF064B19688D
:100FD8000868B0E8F00F80F309884FF0000080F34C
:100FE80011884EF00D0E70477021002002480068ED
:100FF800006880F3088800DF08ED00E010B5094BB1
:101008001A6842F47F021A601A6842F07F421A6036
:10101800FFF7C4FF0024044B1C60FFF7E7FF2046DE
:1010280010BD00BF20ED00E04C0000204FF08052C2
:10103800014B1A60704700BF04ED00E04FF0BF009D
:1010480080F31188024A136801331360704700BFA8
:101058004C000020044A1368013B13601BB94FF091
:10106800000080F3118870474C000020EFF30980DE
:101078000C4B1A6820E9F00F10602DE908404FF07A
:10108800BF0080F3118800F06DFA4FF0000080F384
:101098001188BDE8084019680868B0E8F00F80F3C7
:1010A800098870477021002008B54FF08052064B20
:1010B8001A604FF0BF0080F3118800F027F94FF055
:1010C800000080F3118808BD04ED00E010B5044667
:1010D800006BFFF7F5FE2046FFF7F2FE10BD00BFDC
:1010E80070B506460C464820FFF78CFE054680B1D1
:1010F8001CB9B000FFF786FE00E02046286320B93F
:101108002846FFF7DDFE002503E0A521B20000F028
:10111800D8FD284670BD00BF38B5044615463430A2
:10112800102200F001FE002384F84330092D00D975
:101138000925E5626564201DFFF7F0FE04F118003B
:10114800FFF7ECFE2461C5F10A05A561646238BDAC
:1011580038B5002407E004EB84039B000E481844CC
:10116800FFF7D0FE0134092CF5D90C4D2846FFF7BE
:10117800C9FE0B4C2046FFF7C5FE0A48FFF7C2FE22
:101188000948FFF7BFFE0948FFF7BCFE084B1D6082
:10119800084B1C6038BD00BFA02000209C21002007
:1011A800B0210020742100208C200020C8210020BC
:1011B80080200020902100202DE9F04383B0804654
:1011C800894616461F4610460C99FFF789FF0446C4
:1011D800002849D0036B06F18045013D03EB8505E6
:1011E80025F00705009649460A9A0D9BFFF794FFDC
:1011F800284641463A46FFF7DBFE2060FFF71EFF10
:10120800244B1A6801321A601B68012B04D1224B47
:101218001C60FFF79DFF0AE0204B1B683BB91E4B83
:101228001B68DB6A0A9A934201D81B4B1C60E06A70
:101238001B4B1B68984201D9194B1860194A13684F
:1012480001331360184B1B68984201D9164B18607C
:1012580000EB80008000154B1844211DFFF762FE4B
:10126800FFF7F8FE012501E04FF0FF35012D0DD104
:101278000B9B03B11C60094B1B683BB1064B1B68F9
:10128800DB6A0A9A934201D2FFF7D0FE284603B0E0
:10129800BDE8F0836C21002070210020842000200C
:1012A800DC2100209821002094210020A02000208B
:1012B80000B585B0002300930193029303930B4874
:1012C8000B498022FFF778FF01280BD14FF0BF00B0
:1012D80080F311880122074B1A600022064B1A601E
:1012E800FFF78CFE05B05DF804FB00BF551500083C
:1012F800541D0008842000208C210020024A136815
:1013080001331360704700BF6821002038B5224BB5
:101318001B68002B3BD1214B1A6801321A601B68ED
:1013280043BB1F4A11681F4B1868106019601E4A9A
:101338001368013313601DE06268184B1B689A42FA
:1013480029D8251D2846FFF717FEA36A1BB104F10B
:101358001800FFF711FEE06A144B1B68984201D988
:10136800124B186000EB80008000114B184429468E
:10137800FFF7D8FD0A4B1B681B6823B1084B1B6895
:10138800DB68DC6800E00024002CD5D138BD094AB0
:1013980013680133136038BD682100208C210020B8
:1013A8008020002090210020882100209421002006
:1013B800A02000207C20002070B5FFF73FFE2C4BBA
:1013C8001A68013A1A601B68002B49D1294B1B681F
:1013D80003BB002447E004F11800FFF7CDFD251DED
:1013E8002846FFF7C9FDE06A234B1B68984201D9DC
:1013F800214B186000EB80008000204B18442946E0
:10140800FFF790FDE26A1E4B1B68DB6A9A4202D323
:10141800012600E000261B4B1B681BB1194BDB683B
:10142800DC6800E00024002CD5D1174B1B6833B9C9
:101438000AE0FFF76BFF144A1368013B1360124B75
:101448001B68002BF5D101261EB9104B1B68012B18
:1014580008D100220D4B1A60FFF7E8FD012402E0D5
:10146800002400E00024FFF7F5FD204670BD00BF12
:10147800682100206C21002094210020A020002059
:1014880070210020742100207C200020C42100202D
:1014980070B500B30446FFF731FF114D2B681C44AB
:1014A800104E30680430FFF767FD33685C602B68C6
:1014B8009C4206D20C4B186831680431FFF740FD96
:1014C80006E00A4B1868074B19680431FFF738FD26
:1014D800FFF772FF00E0002008B9FFF7A7FD70BD15
:1014E8008C210020702100209021002080200020E5
:1014F800134B1B6813B310B5FFF700FF114B1C68A3
:10150800FFF75AFFCCB1FFF799FD0E4B1B681BB1D3
:101518000C4BDB68DC6800E00024201DFFF72CFD85
:10152800094A1368013B1360054A1368013B1360BD
:10153800FFF790FD2046FFF7C9FD10BD704700BFBB
:10154800882000208C2000206C21002008B5FFF79F
:10155800CFFF034B1B68012BF9D9FFF767FDF6E7AF
:10156800A02000201B4B1B683BB101221A4B1A60BC
:1015780070471A4A1368013B1360184B1B6803EB4A
:1015880083039B00164AD358002BF2D010B4134B98
:101598001B6814469A00D11889002144486840689D
:1015A80048601A44920008322244904205D14168AA
:1015B80003EB830292002244516003EB83039B00F8
:1015C800074A13445B68DA68064B1A605DF8044BF7
:1015D800704700BF68210020C4210020942100200A
:1015E800A02000207021002008B50023654A137050
:1015F800654A137000F02AFA00F0D4F84FF08050D2
:101608000121FFF723FA61480121FEF797FF4FF008
:1016180090408021FEF792FF4FF4FA60FFF738FF01
:101628004FF4FA60FFF734FF132000F059F9584BD4
:10163800187010F0010F02D00122524B1A7010F0EE
:10164800040F02D00122504B1A700F2000F048F905
:10165800504C2070172000F043F94F4B1870182099
:10166800052100F071F919200C2100F06DF91A20FC
:10167800C02100F069F92620FF2100F065F9272034
:101688003A2100F061F92820F12100F05DF92A20C3
:10169800012100F059F92B200A2100F055F91C20EE
:1016A800302100F051F91E20032100F04DF91F20D0
:1016B800052100F049F93220182100F045F91820D9
:1016C800852100F041F9172000F00AF920702F4811
:1016D8000121FEF735FF4FF090408021FEF730FFE3
:1016E800284B1B789BB1294C20460121FEF726FF89
:1016F80000F03EFA2948202100F022FA2046012174
:10170800FEF71EFF4FF47A70FFF7C2FE16E01E4B7D
:101718001B789BB14FF090408021FEF70FFF00F03F
:1017280027FA1F48202100F00BFA4FF09040802143
:10173800FEF706FF4FF47A70FFF7AAFE134C204617
:101748002021FEF7FDFE4FF47A70FFF7A1FE204638
:101758002021FEF7F3FE4FF47A70FFF799FE20463A
:101768002021FEF7EDFE4FF47A70FFF791FE00F0AE
:1017780079FA4FF480700121FEF7B4FFFEF7C0FF3D
:10178800AEE700BFE2210020E1210020000400486C
:10179800092200200A220020202300205C1D0008C6
:1017A800801D00082DE9F0478CB01020FFF71EF9C6
:1017B8004FF400100121FFF749F94FF4802001216F
:1017C800FFF728F9434F384606210422FEF7BAFEF0
:1017D800384607210422FEF7B5FE02238DF82C3087
:1017E80001258DF82E5000248DF82F404FF0030866
:1017F8008DF82D800CAE402346F8083D384631461A
:10180800FEF756FE4FF0800ACDF828A0384631463C
:10181800FEF74EFEDFF8C4904846FEF7ABFE06948E
:1018280004940594089409940CA92B4B41F8243D81
:101838004846FEF7BBFE48462946FEF7E9FE4FF448
:1018480000302946FFF7E6F88DF82C408DF82E4039
:101858000A958DF82F408DF82D804FF09040314635
:10186800FEF726FE28462946FFF7E2F820462146DD
:10187800FFF708F901948DF8084008238DF809301E
:101888008DF80A5001A8FEF763FD06238DF8003095
:101898000F238DF801308DF802408DF8035068460B
:1018A800FEF7E8FE8DF82C508DF82E408DF82F406D
:1018B8008DF82D800A9538463146FEF7F9FDCDF8AA
:1018C80028A04FF090403146FEF7F2FD0CB0BDE87D
:1018D800F08700BF000400481F1262C00054004097
:1018E80010B582B004464FF40053009315483E21CA
:1018F80001220023FEF798FE12480221FEF7B2FEED
:101908000028F9D00F482146FEF7A6FE0D484021D1
:10191800FEF7A8FE0028F9D04FF4105300930948A9
:101928003F2101224FF00073FEF77EFE0548042197
:10193800FEF798FE0028F9D00248FEF78FFE02B0A5
:1019480010BD00BF0054004030B583B005460C46BA
:1019580016484FF40041FEF785FE0028F8D14FF4F1
:101968000053009311483E2102224FF00073FEF706
:101978005BFE0E480221FEF775FE0028F9D00B48E1
:101988002946FEF769FE09480121FEF76BFE00288B
:10199800F9D006482146FEF75FFE04480121FEF70C
:1019A80061FE0028F9D003B030BD00BF00540040EC
:1019B80008B50020FEF756FD012819D101220D4B6C
:1019C8001A701320FFF78CFF0B4B187010F0010FE3
:1019D80002D00122094B1A7010F0040F02D0012224
:1019E800074B1A701720FFF77BFF0020FEF754FD06
:1019F80008BD00BF0822002009220020E2210020A3
:101A0800E121002000B585B00C4A41F63F735360D0
:101A1800F0210B4B83F823100023936007211160FA
:101A280002220092019302930393064806494FF459
:101A38008072FFF7C1FBFFF73BFCFEE710E000E018
:101A480000ED00E0F1150008A41D00082DE9F041A3
:101A58008AB0374BC3F800314FF4C0200121FEF79C
:101A6800D9FF4FF480400121FEF7E2FF20270197BC
:101A780001258DF8085000248DF80A408DF80B4098
:101A880003268DF80960DFF8B480404601A9FEF707
:101A98000FFD40463946FEF751FD4FF090400921B1
:101AA8000722FEF74FFD4FF090400A210722FEF76C
:101AB80049FD4FF40073019302238DF808308DF827
:101AC8000A408DF80B508DF809604FF0904001A93D
:101AD800FEF7EEFC4FF4806301934FF0904001A9AC
:101AE800FEF7E6FC4FF461430493059406940794CB
:101AF80009940C2308930F4E304604A9FEF7DCFF27
:101B080030460D492A46FFF74FF825238DF80C304B
:101B18008DF80D408DF80E408DF80F5003A8FEF794
:101B2800A9FD30462946FFF72BF80AB0BDE8F08139
:101B38000C2200200038014005010500000400487F
:101B480070B506460D4600240CE03157074889B2A7
:101B5800FFF722F805488021FFF740F80028F9D060
:101B68000134E4B2AC42F0DB70BD00BF0038014084
:101B780038B5324C20462021FEF7E2FC4FF47A704B
:101B8800FFF786FC20462021FEF7D8FC4FF47A7038
:101B9800FFF77EFC20462021FEF7D2FC4FF47A7036
:101BA800FFF776FC264CC4F8004126480F21FFF7C2
:101BB800C7FFC820FFF76CFC04F58275284621464C
:101BC800102200F073F8803420461F4900F090F886
:101BD80020462946102200F093F820461B4900F0C1
:101BE80078F820462121FFF7ABFFC820FFF750FC0B
:101BF80017482121FFF7A4FFC820FFF749FC154823
:101C08003121FFF79DFFC820FFF742FC12480E2143
:101C1800FFF796FFC820FFF73BFC10481121FFF79C
:101C28008FFFC820FFF734FC0D480F21FFF788FF0E
:101C380042F21070FFF72CFC38BD00BF00040048CA
:101C48000C220020B01D0008C01D0008341E00082A
:101C5800D01D0008F41D0008281E0008381E0008C2
:101C68004C1E000808B504481621FFF769FF4FF419
:101C78007A70FFF70DFC08BD5C1E000808B508481F
:101C88000849FEF7B3FF48B10548FEF789FF064A41
:101C9800D2F80031591CC2F80011187008BD00BFF5
:101CA80000380140050105000C22002010B5431E34
:101CB8000A44914204D011F8014B03F8014FF8E7A8
:101CC80010BD02440346934202D003F8011BFAE711
:101CD800704710B50246134601321C78002CFAD121
:101CE800013B11F8012B03F8012F002AF9D110BD8F
:101CF800034611F8012B03F8012B002AF9D170478C
:101D080030B50446234601341D78002DFAD112F16E
:101D1800FF3208D311F8014B03F8014B1CB1002A1C
:101D2800F5D11A70F3E730BD10B5034632B111F89A
:101D3800014B03F8014B013A002CF7D11A449342A6
:101D480003D0002103F8011BF9E710BD49444C45B5
:101D5800000000006D616320747820756E636E6604
:101D680020313020336633663366303266323031A4
:101D780030310D0A000000006D6163207478207511
:101D88006E636E66203130203366336633663032D8
:101D98006632303130320D0A00000000726E323483
:101DA80038335F7461736B007379732067657420CF
:101DB80068776575690D0A006D6163207365742025
:101DC80064657665756920006D61632073657420AC
:101DD8006170706575692037304233443537364154
:101DE800453030303030370D0A0000006D61632017
:101DF800736574206170706B6579203133333431C9
:101E0800333334313333343133333431333334319E
:101E180033333431333334313333340D0A00000073
:101E28006D61632073657420647220310D0A0000AF
:101E38006D61632073657420616472206F66660D3E
:101E48000A0000006D6163206A6F696E206F74611B
:101E5800610D0A0073797320736C656570203432E4
:0C1E680039343936373239350D0A0000A4
:101E74007856341200000100020004000600080035
:101E84000A000C0010002000400080000001000047
:101E9400000000000102030401020304060708090C
:101EA4005C000020000000000000000000000000B2
:101EB400010203040607080900A24A04AAAAAAAA5E
:041EC4003254769886
:040000050800018965
:00000001FF
